:100000000C9440000C94FC050C945D000C945D0075
:100010000C945D000C945D000C945D000C94D8056C
:100020000C945D000C945D000C945D000C945D00DC
:100030000C945D000C945D000C945D000C945D00CC
:100040000C945D000C945D000C945D000C945D00BC
:100050000C945D007B00890283009C01EA002D0165
:100060006A014802CE010B02B7007B00BA0283008E
:100070009C01EA002D016A014802CE010B02B70083
:1000800011241FBECFE5D8E0DEBFCDBF10E0A0E653
:10009000B0E0E4ECF9E102C005900D92A23BB1079B
:1000A000D9F721E0A2EBB0E001C01D92AE32B20759
:1000B000E1F70E941B060C94E00C0C940000809168
:1000C000B900811126C28091BA00813009F45DC265
:1000D0009091B800913009F00BC2E09160008E2F32
:1000E00090E0FC017497EB30F10508F012C2E65D78
:1000F000FF4F0C949A0C86E1809360001092B70039
:100100001092B60006C28091B6009091B700019699
:100110009093B7008093B600449718F081E08093E5
:10012000B90085E0E1E6F0E0ADEFB0E001900D92BE
:100130008A95E1F781E08093B8000E94880481E00D
:100140000E94DF040E944A04843009F0E2C180E08A
:100150000E94DF0481E08093B3008EE18093600011
:100160001092B8001092B7001092B600D2C18091E0
:10017000B6009091B70001969093B7008093B600B7
:100180008039914018F081E08093B90081E080933C
:10019000B80085E0E6E6F0E0ADEFB0E001900D924A
:1001A0008A95E1F781E00E94D8040E9469048035B5
:1001B00008F4AFC180E00E94D80481E08093B300CE
:1001C00088E1809360001092B8001092B7001092FE
:1001D000B6009FC18091B6009091B70001969093B0
:1001E000B7008093B6002091B4003091B50082171B
:1001F0009307F8F481E08093B80085E0EBE6F0E047
:10020000ADEFB0E001900D928A95E1F761E080E8F2
:100210000E948F0481E00E9481042091B6003091F9
:10022000B7008091B4009091B5002817390708F401
:1002300070C160E080E00E948F0480E00E94810431
:1002400081E08093B30089E1809360001092B80050
:100250001092B7001092B6005CC18091B6009091E8
:10026000B70001969093B7008093B6002091B40038
:100270003091B50082179307E0F481E08093B800D5
:1002800085E0EBE6F0E0ADEFB0E001900D928A95ED
:10029000E1F762E080E80E948F042091B60030917F
:1002A000B7008091B4009091B5002817390708F481
:1002B00030C160E080E00E948F0481E08093B30051
:1002C0008AE1809360001092B8001092B7001092FB
:1002D000B6001FC18091B6009091B700019690932F
:1002E000B7008093B600449718F081E08093B9007E
:1002F00081E08093B80086E0E0E7F0E0ADEFB0E0A9
:1003000001900D928A95E1F781E00E94D1040E944C
:100310004A04833009F0FDC080E00E94D10481E0EE
:100320008093B30087E1809360001092B800109230
:10033000B7001092B600EDC08091B6009091B70062
:1003400001969093B7008093B600449718F081E02F
:100350008093B90081E08093B80085E0E1E6F0E0A9
:10036000ADEFB0E001900D928A95E1F781E00E9437
:10037000DF040E944A04843009F0CBC080E00E9470
:10038000DF0481E08093B3008CE1809360001092E1
:10039000B8001092B7001092B600BBC08091B600B2
:1003A0009091B70001969093B7008093B60020918A
:1003B000B4003091B50082179307E0F481E0809398
:1003C000B80086E0E6E7F0E0ADEFB0E001900D9216
:1003D0008A95E1F761E08FEF0E948F042091B600CB
:1003E0003091B7008091B4009091B500281739077B
:1003F00008F48FC060E080E00E948F0481E0809369
:10040000B3008DE1809360001092B8001092B700A5
:100410001092B6007EC08091B6009091B700019610
:100420009093B7008093B6002091B4003091B5004E
:1004300082179307E0F481E08093B80086E0E6E756
:10044000F0E0ADEFB0E001900D928A95E1F762E047
:100450008FEF0E948F042091B6003091B7008091F9
:10046000B4009091B5002817390708F452C060E035
:1004700080E00E948F0481E08093B3008BE1809341
:1004800060001092B8001092B7001092B60041C000
:100490008091B6009091B70001969093B700809339
:1004A000B600449718F081E08093B90081E0809312
:1004B000B80086E0E0E7F0E0ADEFB0E001900D922B
:1004C0008A95E1F781E00E94D1040E944A048330BA
:1004D00001F580E00E94D10484E1809360001092D5
:1004E000BA001092B8001092B7001092B60015C072
:1004F000823079F491113EC081E08093B30087E0AF
:10050000ECE7F0E0ADEFB0E001900D928A95E1F7F5
:1005100031C08091BA0081112DC085E0E3E8F0E0A0
:10052000ADEFB0E001900D928A95E1F781E0809304
:10053000B30080E00E9488040E943F04882319F0E1
:10054000813041F00DC088E290E09093B500809337
:10055000B40006C084E190E09093B5008093B400AD
:100560006091B40085E090E00E94610883E08A9584
:10057000F1F700006091B60086E090E00E9461080B
:1005800023E02A95F1F700000895E09160008E2F96
:1005900090E0FC017497EB30F10560F7EB5CFF4FE6
:1005A0000C949A0C0F93CF93EBE0F1E089E390E089
:1005B0009183808383E390E09683858385E08283C3
:1005C00086E0838387E08483ADEFB0E089E694E042
:1005D00019969C938E9318971D96FC93EE931C97F7
:1005E00082E191E01B969C938E931A9785E0E8E850
:1005F000F0E001900D928A95E1F700E020E040EAFA
:1006000056E861E070E088E00E94EC0821E040E0FC
:1006100060E480E00E94490882E191E00E940F08B6
:100620008BE091E00E94FF068BE091E00E94F907C9
:1006300023E040E060E288E40E94A40963E080E4F3
:100640000E94700845E060E086E390E00E94920816
:1006500044E060E086E390E00E94920842E060E0BF
:1006600086E390E00E94920842E060E083E390E03D
:100670000E94920843E060E083E390E00E949208C9
:1006800042E060E083E390E00E94920846E060E090
:1006900086E390E00E94920881E090E00E94690861
:1006A000C82F83E08A95F1F7000087E090E00E9470
:1006B000690893E09A95F1F70000CF3F19F0813077
:1006C00009F040C060E081E090E00E94610883E0B2
:1006D0008A95F1F7000060E082E090E00E946108F6
:1006E00093E09A95F1F7000064E183E090E00E94C6
:1006F000610883E08A95F1F7000060E084E090E013
:100700000E94610893E09A95F1F7000060E085E0AF
:1007100090E00E94610883E08A95F1F7000060E0B4
:1007200086E090E00E94610893E09A95F1F700005E
:1007300060E087E090E00E94610883E08A95F1F72D
:10074000000034C082E090E00E9469088093BA0003
:1007500093E09A95F1F7000083E090E00E94690829
:100760008093600083E08A95F1F7000084E090E0D8
:100770000E9469088093B80093E09A95F1F7000011
:1007800085E090E00E94690890E09093B500809326
:10079000B40086E090E00E94690890E09093B70072
:1007A0008093B60083E08A95F1F70000CF910F9116
:1007B00008958091B300813041F56091BA0082E0E4
:1007C00090E00E94610883E08A95F1F70000609153
:1007D000600083E090E00E94610883E08A95F1F771
:1007E00000006091B80084E090E00E94610883E01E
:1007F0008A95F1F700006091B90087E090E00E94CF
:10080000610883E08A95F1F700000895809107015F
:10081000909108010E941D088DEF90E00E94E6046F
:1008200008958091B900813049F586E0EDE8F0E067
:10083000ADEFB0E001900D928A95E1F74091B200E2
:1008400062E083E390E00E94C40880E00E9481049B
:1008500080E00E94880460E080E00E948F0480E0D5
:100860000E94D10480E00E94D80480E00E94DF044E
:100870009091B20081E089278093B200089561E0F1
:1008800089E390E00E94E208813011F080E0089551
:1008900081E00895CF9361E086E390E00E94E20852
:1008A000C82F60E086E390E00E94E208813021F4E6
:1008B000C13041F080E00BC0811106C0C11106C0FB
:1008C00083E005C084E003C080E001C080E0CF91F8
:1008D000089580E00E945308BC0180E090E00E94EF
:1008E0009F0B20E030E04AEF53E40E942D0C20E003
:1008F00030E040E85AE30E942D0C0E94700B862FD6
:100900000895482F67E086E390E00E94C4080895A8
:10091000482F65E086E390E00E94C40808956130A6
:1009200021F068F16230B1F00895682F70E080E046
:1009300090E00E949F0B0E94B30941E063E083E3D3
:1009400090E00E94C40840E062E083E390E00E94EF
:10095000C4080895682F70E080E090E00E949F0B2B
:100960000E94B30941E062E083E390E00E94C40882
:1009700040E063E083E390E00E94C408089560E0F3
:1009800070E0CB010E94B30940E062E083E390E0B5
:100990000E94C40840E063E083E390E00E94C40842
:1009A0000895482F64E086E390E00E94C40808950B
:1009B000482F66E086E390E00E94C4080895482F1F
:1009C00062E086E390E00E94C4080895EF92FF92EF
:1009D0000F931F93CF93DF93EC010CEE10E087E0B1
:1009E000E3E9F0E0D80101900D928A95E1F788E003
:1009F000EAE9F0E0ACEDB0E001900D928A95E1F704
:100A000089E0E2EAF0E0ACECB0E001900D928A956A
:100A1000E1F7BE018CEC90E00E94A00CECECF0E061
:100A200001900020E9F7319780E290E29183808382
:100A30001282EA85FB8582818F704AE06AEC70E061
:100A400090E00E94AB0CEA85FB8581818F704AE0C3
:100A500068EC70E090E00E94AB0CEA85FB85808139
:100A60008F704AE066EC70E090E00E94AB0CEA8583
:100A7000FB85828182958F704AE064EC70E090E0A3
:100A80000E94AB0CEA85FB85818182958F704AE0DC
:100A900062EC70E090E00E94AB0CEA85FB858081FF
:100AA00082958F704AE060EC70E090E00E94AB0CA1
:100AB000E885F98509954AE06BEB70E090E00E94CB
:100AC000AB0C6BEB70E08CED90E00E94A00CECEDB9
:100AD000F0E001900020E9F7319780E290E0918307
:100AE000808364EC70E0C8010E94A00C6AEC70E0A6
:100AF000C8010E94A00CF80101900020E9F731978D
:100B00000F2EFAE3EF2EF12CF02DF182E08262EC51
:100B100070E0C8010E94A00C68EC70E0C8010E945F
:100B2000A00CF80101900020E9F73197F182E082F2
:100B300060EC70E0C8010E94A00C66EC70E0C80197
:100B40000E94A00C45E060E08C859D850E94FD0719
:100B50006BEA70E08C859D850E94E40740E061E0CF
:100B60008C859D850E94FD076CEC70E08C859D85D1
:100B70000E94E40740E062E08C859D850E94FD07AD
:100B80006CED70E08C859D850E94E40740E063E099
:100B90008C859D850E94FD07B8018C859D850E94EE
:100BA000E407DF91CF911F910F91FF90EF9008958F
:100BB0001F920F920FB60F9211242F933F934F93D2
:100BC0005F936F937F938F939F93AF93BF93EF93B5
:100BD000FF930E94DC09FF91EF91BF91AF919F912C
:100BE0008F917F916F915F914F913F912F910F90D6
:100BF0000FBE0F901F9018951F920F920FB60F9275
:100C000011248F938091BA00813041F018F0823026
:100C100049F00BC081E08093BA0007C082E0809366
:100C2000BA0003C081E08093BA008F910F900FBE8D
:100C30000F901F9018950E94D2020E944E0A04E65F
:100C400010E020E030E040E050E0BA018FE590E0B5
:100C50000E94FA0904E610E020E030E041E050E0B4
:100C600060E070E086E094E00E94FA0908EE13E08C
:100C700020E030E040E050E0BA0181E194E00E94E1
:100C8000FA0908EE13E020E030E040E050E0BA015D
:100C900089ED93E00E94FA090E948D0A0E946A0A77
:100CA000FDCFFC01A081B18112963C91129781E0A9
:100CB00090E0AC01028002C0440F551F0A94E2F795
:100CC000242F2095232312962C93A081B181129674
:100CD0003C911297AC01038002C0440F551F0A9447
:100CE000E2F7242F2095232312962C93A081B18123
:100CF00012964C9112979C01048002C0220F331F60
:100D00000A94E2F7242B12962C93A9EFB0E01197E6
:100D1000F1F700C00000A581B68112962C911297C0
:100D20002F7012962C93A581B68112962C91129752
:100D3000362F307F232B12962C93A9EFB0E011971A
:100D4000F1F700C00000A081B18112963C9112978A
:100D5000AC01048002C0440F551F0A94E2F7242F0F
:100D60002095232312962C93A9EFB0E01197F1F769
:100D700000C00000A081B18112964C9112979C0195
:100D8000048002C0220F331F0A94E2F7242B12962C
:100D90002C93A9EFB0E01197F1F700C00000A581F6
:100DA000B68112962C9112972F7012962C93A581D2
:100DB000B68112962C91129730E1639FB0011124F5
:100DC000622B12966C93A9EFB0E01197F1F700C077
:100DD0000000A081B18112962C911297048002C06C
:100DE000880F991F0A94E2F78095822312968C93BC
:100DF00089EF90E00197F1F700C000000895CF93CC
:100E0000DF93EC01E881F981318181E090E0BC0160
:100E10000B8002C0660F771F0A94E2F7AC010A80CC
:100E200002C0440F551F0A94E2F7262F242B232BD0
:100E30000C8002C0880F991F0A94E2F7822B8183ED
:100E4000ED81FE818181806F818362E0CE010E940D
:100E5000510668E2CE010E9451066CE0CE010E946C
:100E6000510661E0CE010E945106DF91CF910895B5
:100E7000FC01A081B18112964C91129781E090E023
:100E80009C01028002C0220F331F0A94E2F7242B38
:100E900012962C93A081B18112963C911297AC01CD
:100EA000038002C0440F551F0A94E2F7242F2095B7
:100EB000232312962C93A081B18112964C91129704
:100EC0009C01048002C0220F331F0A94E2F7242BF6
:100ED00012962C93A9EFB0E01197F1F700C0000033
:100EE000A581B68112962C9112972F7012962C9391
:100EF000A581B68112962C911297362F307F232B25
:100F000012962C93A9EFB0E01197F1F700C0000002
:100F1000A081B18112963C911297AC01048002C06D
:100F2000440F551F0A94E2F7242F2095232312968D
:100F30002C93A9EFB0E01197F1F700C00000A08159
:100F4000B18112964C9112979C01048002C0220F2D
:100F5000331F0A94E2F7242B12962C93A9EFB0E0EA
:100F60001197F1F700C00000A581B68112962C916F
:100F700012972F7012962C93A581B68112962C9100
:100F8000129730E1639FB0011124622B12966C938B
:100F9000A9EFB0E01197F1F700C00000A081B18186
:100FA00012962C911297048002C0880F991F0A9400
:100FB000E2F78095822312968C9389EF90E0019757
:100FC000F1F700C0000008950F931F93CF93DF93B4
:100FD000EB016881662341F08C012196C8010E94D3
:100FE000380769916111FACFDF91CF911F910F916D
:100FF000089561E00E9451060895613031F050F08B
:10100000623029F0633029F00895405C03C0405FEE
:1010100001C0405B642F60680E94510608950E94E1
:10102000720980ED0E94990987E00E94990980E188
:101030000E9499090E947C090895CF93DF93EC01E7
:101040000E94720980ED0E94990980E00E9499092E
:101050000E947C090E94720981ED0E9499090E94F8
:10106000830988830E94830989830E9483098A8374
:101070000E9483098B830E9483098C830E948309C9
:101080008D830E948E098E830E947C09DF91CF910F
:10109000089567B9440F440F440F242B26B98111DA
:1010A000359A379A089597B1907E97B997B1892B61
:1010B00087B9369A349BFECF84B195B1349A937038
:1010C0000895E199FECF9FBB8EBB6DBBE29AE19A7A
:1010D0000895E199FECF9FBB8EBBE09A8DB3089532
:1010E0009FB79F779FBF803429F0803889F0803286
:1010F000C1F407C085B7682B65BF8BB780648BBF11
:101100000DC085B7682B65BF8BB780628BBF06C0EB
:1011100084B7682B64BF8BB780688BBF8FB780683C
:101120008FBF0895FC01613079F018F06230E1F072
:101130000895218181E090E002C0880F991F4A95AF
:10114000E2F7822B81830895218181E090E002C043
:10115000880F991F4A95E2F78095922F98239183E3
:101160009281892382830895218181E090E002C0E9
:10117000880F991F4A95E2F7982F909592239183B3
:101180009281892B82830895442319F0413071F0B4
:101190000895FC01428121E030E002C0220F331F9C
:1011A0006A95E2F72095242322830895FC01428169
:1011B00021E030E002C0220F331F6A95E2F7242BB2
:1011C00022830895FC01808190E002C09595879567
:1011D0006A95E2F7817008950F93CF93DF93D82F2C
:1011E000C22F013009F130F00230D1F1033009F49F
:1011F00053C074C0CB01BA010E949F0B9B01AC018C
:101200000E94920A9B01AC0160E074E284E799E4D9
:101210000E94FE0A20E030E040E051E40E94910A82
:101220000E94700B60B953C0CB01BA010E949F0BA2
:1012300020E030E040E051E40E942D0C9B01AC0125
:1012400060E074E284E799E40E94FE0A20E030E066
:1012500040E050E40E94910A0E94700B60B937C0D0
:10126000CB01BA010E949F0B20E030E040E052E445
:101270000E942D0C9B01AC0160E074E284E799E4CC
:101280000E94FE0A20E030E040E05FE30E94910A05
:101290000E94700B60B91BC0CB01BA010E949F0B6A
:1012A00020E030E040E053E40E942D0C9B01AC01B3
:1012B00060E074E284E799E40E94FE0A20E030E0F6
:1012C00040E05EE30E94910A0E94700B60B9DD0F5E
:1012D000D2B981B1082B01B9C460C6BFDF91CF91EB
:1012E0000F91089586B7877086BF86B7806A86BFDC
:1012F00006B607FEFDCF089586B7877086BF86B70E
:10130000806986BF089586B7877086BF86B7806C70
:1013100086BF06B607FEFDCF83B1089586B78770F6
:1013200086BF86B7806886BF06B607FEFDCF83B14D
:10133000089583B986B7877086BF86B7806886BFF1
:1013400006B607FEFDCF0895262B822B83BF89B7F3
:10135000482B49BF662331F043E060E086E390E02C
:101360000E949208089520E030E048EC52E40E9488
:10137000FE0A20E030E04FE753E40E942D0C0E946B
:10138000700B70E080E090E00E94A10B20E030E064
:1013900040E05FE30E94920A0E94700B6CBF0895C8
:1013A000822B8064482B592B642B752B7FBD6EBD1F
:1013B00089B7806189BF0895E9E1F1E02EE231E06B
:1013C00080819181892B89F082819381009751F4EA
:1013D00086818F5F868384819581009731F0938326
:1013E000828303C00197938382833796E217F307C2
:1013F00039F708950F931F93DC01809119019091A3
:101400001A01892B49F08091200190912101892BAB
:10141000C1F082E090E002C080E090E0FC01EE0FBD
:10142000FF1FEE0FFF1FEE0FFF1FE81BF90BE75E1C
:10143000FE4FB183A08353834283158304831682B6
:1014400003C081E090E0EACF1F910F910895FC0165
:10145000EE0FFF1FEE0FFF1FEE0FFF1FE81BF90B34
:10146000E75EFE4F20813181232B21F481E08093C0
:10147000FC000895FC01EE0FFF1FEE0FFF1FEE0FA3
:10148000FF1FE81BF90BE75EFE4F118210821382EB
:10149000128215821482168280E0089580E090E026
:1014A0000E94270A81E090E00E94270A82E090E0F3
:1014B0000E94270A1092FC0021E040E050E060E02A
:1014C00070E088E090E00E94D00988EE93E09BBD38
:1014D0008ABD08950F931F93CF93DF93C9E1D1E0A5
:1014E00000E010E08E81882369F0E881F981099598
:1014F0008E8181508E838C819D81892B19F4C80146
:101500000E94270A0F5F1F4F27960330110551F7DE
:10151000DF91CF911F910F9108958FB780688FBF92
:1015200008955058BB27AA270E94A90A0C94F30BD0
:101530000E94E50B38F00E94EC0B20F039F49F3F3D
:1015400019F426F40C94E20B0EF4E095E7FB0C94EE
:10155000DC0BE92F0E94040C58F3BA1762077307DB
:101560008407950720F079F4A6F50C94260C0EF468
:10157000E0950B2EBA2FA02D0B01B90190010C01A3
:10158000CA01A0011124FF27591B99F0593F50F4BB
:10159000503E68F11A16F040A22F232F342F442713
:1015A000585FF3CF469537952795A795F04053950B
:1015B000C9F77EF41F16BA0B620B730B840BBAF0DB
:1015C0009150A1F0FF0FBB1F661F771F881FC2F746
:1015D0000EC0BA0F621F731F841F48F4879577955A
:1015E0006795B795F7959E3F08F0B0CF9395880F14
:1015F00008F09927EE0F9795879508950E94120B92
:101600000C94F30B0E94EC0B58F00E94E50B40F099
:1016100029F45F3F29F00C94DC0B51110C94270C3A
:101620000C94E20B0E94040C68F39923B1F3552348
:1016300091F3951B550BBB27AA27621773078407E5
:1016400038F09F5F5F4F220F331F441FAA1FA9F37B
:1016500035D00E2E3AF0E0E832D091505040E69569
:10166000001CCAF72BD0FE2F29D0660F771F881FCA
:10167000BB1F261737074807AB07B0E809F0BB0BBD
:10168000802DBF01FF2793585F4F3AF09E3F5105D1
:1016900078F00C94DC0B0C94270C5F3FE4F3983E3D
:1016A000D4F3869577956795B795F7959F5FC9F7BA
:1016B000880F911D9695879597F90895E1E0660F3B
:1016C000771F881FBB1F621773078407BA0720F0B4
:1016D000621B730B840BBA0BEE1F88F7E09508951D
:1016E0000E940C0C88F09F5798F0B92F9927B7519A
:1016F000B0F0E1F0660F771F881F991F1AF0BA95B6
:10170000C9F714C0B13091F00E94260CB1E00895E1
:101710000C94260C672F782F8827B85F39F0B93FD3
:10172000CCF3869577956795B395D9F73EF4909568
:101730008095709561957F4F8F4F9F4F0895E894E6
:1017400009C097FB3EF490958095709561957F4F09
:101750008F4F9F4F9923A9F0F92F96E9BB279395B7
:10176000F695879577956795B795F111F8CFFAF4C7
:10177000BB0F11F460FF1BC06F5F7F4F8F4F9F4FF8
:1017800016C0882311F096E911C0772321F09EE856
:10179000872F762F05C0662371F096E8862F70E0BC
:1017A00060E02AF09A95660F771F881FDAF7880F96
:1017B0009695879597F9089597F99F6780E870E067
:1017C00060E008959FEF80EC089500240A941616B7
:1017D000170618060906089500240A94121613061F
:1017E000140605060895092E0394000C11F48823AD
:1017F00052F0BB0F40F4BF2B11F460FF04C06F5FC9
:101800007F4F8F4F9F4F089557FD9058440F551F9E
:1018100059F05F3F71F04795880F97FB991F61F072
:101820009F3F79F087950895121613061406551FE9
:10183000F2CF4695F1DF08C0161617061806991F55
:10184000F1CF86957105610508940895E894BB274A
:1018500066277727CB0197F908950E94400C0C94D6
:10186000F30B0E94E50B38F00E94EC0B20F095235F
:1018700011F00C94DC0B0C94E20B11240C94270C4B
:101880000E94040C70F3959FC1F3950F50E0551F13
:10189000629FF001729FBB27F00DB11D639FAA27C5
:1018A000F00DB11DAA1F649F6627B00DA11D661F14
:1018B000829F2227B00DA11D621F739FB00DA11D35
:1018C000621F839FA00D611D221F749F3327A00DEF
:1018D000611D231F849F600D211D822F762F6A2F8B
:1018E00011249F5750409AF0F1F088234AF0EE0FF0
:1018F000FF1FBB1F661F771F881F91505040A9F71D
:101900009E3F510580F00C94DC0B0C94270C5F3F3C
:10191000E4F3983ED4F3869577956795B795F79558
:10192000E7959F5FC1F7FE2B880F911D96958795D0
:1019300097F90895EE0FFF1F0590F491E02D09949B
:10194000FB01DC010D900020E9F7119701900D9249
:101950000020E1F70895BB274A3031F4992322F49F
:10196000BDE2909581959F4F0C94B70CBB27FB016E
:101970005527AA27880F991FAA1FA41710F0A41B88
:1019800083955051B9F7A05DAA3308F0A95DA193E2
:10199000009779F7B111B1931192CB010C94D00C4F
:1019A000DC01FC01672F71917723E1F7329704C0C6
:1019B0007C916D9370836291AE17BF07C8F3089551
:0419C000F894FFCFC9
:1019C4001446696C6C004865617400576173680063
:1019D400447261696E005261697365005061757388
:1019E40065640049646C650069646C6500457272E5
:1019F4006F7200636C6B203A200074656D70203A3E
:101A040020005374617465203A200073686168652E
:021A140072005E
:00000001FF
